:020000040000FA
:100000000C9462000C948A000C948A000C948A0070
:100010000C948A000C948A000C948A000C948A0038
:100020000C948A000C948A000C948A000C948A0028
:100030000C948A000C948A000C948A000C948A0018
:100040000C9444070C948A000C948A000C948A0047
:100050000C948A000C948A000C948A000C948A00F8
:100060000C948E070C948A000000000023002600E8
:10007000290000000000240027002A0000000000E2
:10008000250028002B0004040404040404040202D4
:100090000202020203030303030301020408102007
:1000A0004080010204081020010204081020000012
:1000B0000008000201000003040700000000000027
:1000C0000000AD0811241FBECFEFD8E0DEBFCDBFCA
:1000D00011E0A0E0B1E0ECEDF5E102C005900D9279
:1000E000A43EB107D9F722E0A4EEB1E001C01D9211
:1000F000A23DB207E1F710E0C2E6D0E004C02197CC
:10010000FE010E94E60AC136D107C9F70E94CD0858
:100110000C94EC0A0C940000833081F028F48130B8
:1001200099F08230A9F008958730A9F08830C9F09D
:100130008430B1F4809180008F7D03C08091800075
:100140008F7780938000089584B58F7784BD08955C
:1001500084B58F7DFBCF8091B0008F778093B00006
:1001600008958091B0008F7DF9CF1F93CF93DF93D7
:10017000282F30E0F901E255FF4F8491F901E6564E
:10018000FF4FD491F901EA57FF4FC491CC23A9F056
:10019000162F81110E948C00EC2FF0E0EE0FFF1F54
:1001A000E458FF4FA591B4918FB7F894EC911111D9
:1001B00008C0D095DE23DC938FBFDF91CF911F91D4
:1001C0000895DE2BF8CFCF93DF9390E0FC01E65645
:1001D000FF4F24918A579F4FFC0184918823D1F0CF
:1001E00090E0880F991FFC01EE58FF4FA591B49144
:1001F000FC01E458FF4FC591D491623071F49FB770
:10020000F8943C91822F809583238C93E8812E2B48
:1002100028839FBFDF91CF9108958FB7F894EC9119
:100220002E2B2C938FBFF6CFCF93DF93EC0161E0A1
:1002300089E00E94E300209731F460E089E0DF91DB
:10024000CF910C94B500CF3FD10511F461E0F6CF0A
:10025000E7EBF0E0E491E33029F140F4E130B1F074
:10026000E230D9F0C038D1058CF7E7CFE73021F183
:10027000E83051F1E430B1F78091800080628093E2
:100280008000D0938B00C0938A0004C084B580683E
:1002900084BDC7BDDF91CF91089584B5806284BDD0
:1002A000C8BDF8CF80918000806880938000D09393
:1002B0008900C0938800EECF8091B0008068809361
:1002C000B000C093B300E6CF8091B000806280930D
:1002D000B000C093B400DECF3FB7F8948091B6026F
:1002E0009091B702A091B802B091B90226B5A89B2F
:1002F00005C02F3F19F00196A11DB11D3FBFBA2FB8
:10030000A92F982F8827BC01CD01620F711D811D77
:10031000911D42E0660F771F881F991F4A95D1F7FC
:1003200008958F929F92AF92BF92CF92DF92EF92F9
:10033000FF924B015C010E946C016B017C010E94E9
:100340006C016C197D098E099F09683E7340810517
:100350009105A8F321E0821A9108A108B10888EE5E
:10036000C80E83E0D81EE11CF11C81149104A10485
:10037000B10429F7FF90EF90DF90CF90BF90AF903E
:100380009F908F9008952FB7F8946091B20270916A
:10039000B3028091B4029091B5022FBF08950895E1
:1003A0000895AF92BF92CF92DF92EF92FF920F9398
:1003B0001F93CF93DF936C017B018B01040F151FFB
:1003C000EB015E01AE18BF08C017D10759F0699163
:1003D000D601ED91FC910190F081E02DC6010995C7
:1003E000892B79F7C501DF91CF911F910F91FF9074
:1003F000EF90DF90CF90BF90AF9008950895209137
:100400002B02260F3327331F21323105ECF42091C4
:100410007402FC0190E080E0243069F082E00895ED
:10042000A0912B022191AC01455F5D4FA40FB52F28
:10043000B11D2C930196861798F380912B02680FBB
:1004400060932B0280E0089581E008951092740279
:1004500081E08093730210924E0261E082E10E947B
:10046000B50061E083E10E94B500E9EBF0E0808136
:100470008E7F808380818D7F808388E48093B80025
:1004800085E48093BC000895CF93DF9391E090932F
:100490000A028823B9F0C091B800D091BA008091C7
:1004A000BC008A7B8093BC0060E082E10E94B500C2
:1004B00060E083E10E94B5000E942602D093BA005A
:1004C000C093B800DF91CF9108950895E091A30201
:1004D0008091A202E81730F4F0E0E651FE4F8081EF
:1004E00090E008958FEF9FEF08959091A30280917F
:1004F000A2022FEF3FEF981748F4E92FF0E0E65102
:10050000FE4F208130E09F5F9093A302C9010895C0
:100510008091A2029091A302891B990B0895CF921A
:10052000DF92EF92FF920F931F93CF93DF937C01A3
:10053000CB018A0120917A02222389F0EB016B0121
:10054000C40ED51ECC15DD0569F06991D701ED917A
:10055000FC910190F081E02DC7010995F3CF642F44
:100560000E94FF01C801DF91CF911F910F91FF9071
:10057000EF90DF90CF900895CF93DF931F92CDB788
:10058000DEB7698320917A022223F9F02091A0023C
:10059000203258F021E030E0FC013383228390E0E8
:1005A00080E00F90DF91CF9108958091A102E82F14
:1005B000F0E0E558FD4F998190838F5F8093A10211
:1005C0008093A00281E090E0ECCF61E0CE01019643
:1005D0000E94FF01F7CFCF92DF92EF92FF920F932D
:1005E0001F93CF93DF93FC01C48121E020937A0213
:1005F000C0939B021092A1021092A0028385682BE7
:100600008AEB92E00E94BC02D091A002D13208F0A5
:1006100092C00E946C016B017C0180917402811177
:1006200065C082E08093740281E0809373028FEF53
:100630008093720210927102D0937002ABE7B2E025
:10064000E0E5F2E080E0D81385C010924F0280917F
:100650004F02CC0FC82BC0934F0280914E028130C5
:1006600009F07CC010924E020E946C016B017C016B
:1006700080914F028093BB00809176029091770227
:10068000A0917802B0917902892B8A2B8B2B99F05B
:100690000E946C01009176021091770220917802FD
:1006A000309179026C197D098E099F090617170789
:1006B00028073907E0F18091BC0083FDD9CF85EC94
:1006C0008093BC000E946C016B017C0180917402DC
:1006D000823009F445C0809172028F3F61F18091B0
:1006E0007202803241F18091720225C080917602BF
:1006F00090917702A0917802B0917902892B8A2B90
:100700008B2B09F48ACF0E946C0100917602109124
:10071000770220917802309179026C197D098E0957
:100720009F09061717072807390708F076CF809129
:1007300075020E9444021092A1021092A00210922F
:100740007A02DF91CF911F910F91FF90EF90DF9090
:10075000CF9008959D9191938F5F75CF85EEB0CF27
:100760008091760290917702A0917802B0917902FF
:10077000892B8A2B8B2B09F4A9CF0E946C01009145
:1007800076021091770220917802309179026C19EB
:100790007D098E099F09061717072807390708F0F2
:1007A00095CFC5CF90E080E008951092A7021092F7
:1007B000A8021092A9021092AA021092A602109208
:1007C000A50290E080E00E94140160E08CE00E94AD
:1007D000B50060E08BE00E94B50060E08AE00C9418
:1007E000B5008F929F92AF92BF920F931F93CF93BA
:1007F000DF93CDB7DEB7A1970FB6F894DEBF0FBE7B
:10080000CDBF19A2423008F44AE08E010F5D1F4FA0
:10081000842E912CB12CA12CA50194010E94B00A28
:10082000E62FB901CA01EA3044F5E05DD801EE9344
:100830008D01232B242B252B79F790E080E0109756
:1008400069F0FD0101900020E9F73197AF014A1BE3
:100850005B0BBD0186EC92E00E94D101A1960FB620
:10086000F894DEBF0FBECDBFDF91CF911F910F91E6
:10087000BF90AF909F908F900895E95CD7CFFC0117
:1008800001900020E9F73197AF01481B590BBC01DB
:1008900086EC92E00C94D1010F931F93CF938C01BF
:1008A000C62F0E94EB026C2F6460C8010E94EB020D
:1008B0006C2F6B7FC8010E94EB0283EC90E00197E4
:1008C000F1F7CF911F910F9108950F931F93CF933D
:1008D000DF938C01D62FC42F607F642B0E944C04C1
:1008E00080E1D89FB00111246C2BC801DF91CF911A
:1008F0001F910F910C944C0440E061E086EC92E073
:100900000E9465048BE39FE10197F1F70895CF936F
:10091000DF93CDB7DEB728970FB6F894DEBF0FBED2
:10092000CDBF98E0E0E0F1E0DE01119601900D927C
:100930009A95E1F79091CE02981708F48FEF90E026
:10094000880F991F21E030E02C0F3D1F820F931F6D
:10095000FC016081606840E086EC92E028960FB66A
:10096000F894DEBF0FBECDBFDF91CF910C9465042C
:1009700041E00E94650481E090E008952F923F924B
:100980004F925F926F927F928F929F92AF92BF929F
:10099000CF92DF92EF92FF920F931F93CF93DF934B
:1009A0004B015C0120E13EE040E050E00E94B00AD3
:1009B000E9012CE3C22ED12CE12CF12CA7019601E8
:1009C0000E94B00A29013A011901C501B401A70129
:1009D00096010E94B00A6B017C018B01C436D105DF
:1009E00008F044C0CA30D10520F486E291E00E94AC
:1009F0003F04BE0190E080E04AE00E94F10388E2FB
:100A000091E00E943F048AE02816310420F486E237
:100A100091E00E943F044AE0C301B2010E94F10349
:100A200088E291E00E943F040A30110520F486E23A
:100A300091E00E943F044AE0C701B6010E94F10321
:100A400085ED91E0DF91CF911F910F91FF90EF9095
:100A5000DF90CF90BF90AF909F908F907F906F90DE
:100A60005F904F903F902F900C943F04C3E6D0E0EE
:100A7000C0CFCF92DF92EF92FF920F931F93CF934D
:100A8000DF939C01EB01FC01E255FF4F8491F901DA
:100A9000E656FF4FE490F901EA57FF4FF4908B01BF
:100AA0000C511E4FF11054C0F8018081811145C0D6
:100AB0008091AF029091B002C330D10509F478C1A2
:100AC0000CF057C0C130D10509F4A4C0229709F435
:100AD0005CC18330910509F060C00E94D5030E947B
:100AE0007C0480E00E9487048AE291E00E943F0437
:100AF00068EE73E080E090E00E94910181E090E078
:100B00009093B0028093AF020E94C3016093AB0246
:100B10007093AC028093AD029093AE0261E08AE0E4
:100B20000E94B50061E08CE00E94B50064EB70E0CB
:100B300080E090E00E94910181E0F8018083DF91E4
:100B4000CF911F910F91FF90EF90DF90CF9008957C
:100B500081110E948C00EF2DF0E0EE0FFF1FE8598D
:100B6000FF4FA591B491EC91EE2209F49DCF80E066
:100B7000E4CFC430D10509F42EC1259709F0A9CFDF
:100B80000197A1F68091A5029091A6028F3F910551
:100B900009F03DC188EC90E029C19C012D7F232BF9
:100BA00041F561E08AE00E94B50061E08CE00E94BE
:100BB000B5000E94C3016093AB027093AC028093B6
:100BC000AD029093AE0281E090E09093B0028093EA
:100BD000AF020E947C0480E00E94870489E391E0D8
:100BE0000E943F046CEB72E080E090E00E94910173
:100BF0009DCF019709F09ACF0E947C0480E00E946B
:100C0000870489E391E00E943F0464EF71E080E093
:100C100090E0ECCF8130910509F059C00E94C301EA
:100C2000C090AB02D090AC02E090AD02F090AE026A
:100C30006C197D098E099F0928EE33E040E050E0F1
:100C40000E94B00A8091A7029091A802A091A902E7
:100C5000B091AA02820F931FA41FB51F8093A70211
:100C60009093A802A093A902B093AA0282E090E018
:100C70009093B0028093AF0260E08CE00E94B500D8
:100C800060E08BE00E94B50090E080E00E941401DB
:100C90001092A6021092A5020E947C0480E00E949D
:100CA000870488E491E00E943F0481E00E94870469
:100CB00089E591E00E943F046091A7027091A8022B
:100CC0008091A9029091AA020E94BE042FCF0297A0
:100CD00009F02CCF83E090E09093B0028093AF02B4
:100CE00060E08CE00E94B50060E08BE00E94B500FF
:100CF00060E08AE00E94B50090E080E00E9414016C
:100D00001092A6021092A5020E947C0480E00E942C
:100D1000870480E691E00E943F0481E00E948704FE
:100D20008DE691E00E943F046091A7027091A802B5
:100D30008091A9029091AA020E94BE040E94C30160
:100D40006B017C010E94C3016C197D098E099F090A
:100D5000603177428105910540F4A89562E370E027
:100D600080E090E00E949101EDCF0E94D5030E94A7
:100D70007C0480E00E94870486E791E00E943F04A3
:100D80001092B0021092AF02D1CE019709F0CECEF0
:100D900061E08CE00E94B50060E08BE00E94B5004D
:100DA0000E947C0480E00E94870487E891E02BCFBA
:100DB000019709F0BBCE60E08CE00E94B50061E0D5
:100DC0008BE00E94B5000E947C0480E00E948704B2
:100DD00087E991E018CF019709F0A8CE8091A5028C
:100DE0009091A602883C910564F4C2969093A60265
:100DF0008093A5028091A5029091A6020E94140101
:100E000095CE883C9105B1F78FEF90E0EFCF82331C
:100E1000910584F3C297EACF85ED8093BC00809161
:100E2000760290917702A0917802B09179020796AC
:100E3000A11DB11D23E0B695A795979587952A9595
:100E4000D1F72091BC0024FD03C0109274020895D4
:100E50004091760250917702609178027091790208
:100E6000452B462B472B69F30097A105B10541F0AF
:100E70002AE22A95F1F700C00197A109B109E1CF53
:100E8000809175020C9444021F920F920FB60F923C
:100E900011242F933F938F939F93AF93BF93809190
:100EA000B2029091B302A091B402B091B502309118
:100EB000B10223E0230F2D3758F50196A11DB11D76
:100EC0002093B1028093B2029093B302A093B40234
:100ED000B093B5028091B6029091B702A091B8028A
:100EE000B091B9020196A11DB11D8093B6029093F5
:100EF000B702A093B802B093B902BF91AF919F918E
:100F00008F913F912F910F900FBE0F901F901895CA
:100F100026E8230F0296A11DB11DD2CF1F920F927A
:100F20000FB60F9211242F933F934F935F936F93BC
:100F30007F938F939F93AF93BF93EF93FF93809192
:100F4000B900887F803609F44AC0F0F5883209F488
:100F5000A7C018F5803109F49BC0B8F4882309F4C0
:100F6000F9C0883009F494C0FF91EF91BF91AF911F
:100F70009F918F917F916F915F914F913F912F91B1
:100F80000F900FBE0F901F901895883109F488C0FC
:100F9000803251F78093720214C0803409F49DC0EE
:100FA00040F48033B9F38833F9F68093720285EC0C
:100FB000B0C0803509F485C0883509F496C08834FE
:100FC00099F60E940C07D0CF883909F48CC038F507
:100FD000883729F050F4883611F0803729F683E0FD
:100FE0008093740210924D0257C0883809F47BC078
:100FF000803919F0803809F0B7CF80914D028032E6
:1010000008F071C0E0914D0281E08E0F80934D0297
:101010008091BB00F0E0E35DFD4F80833DC0803BED
:1010200039F0E0F4803A09F479C0883A09F09CCFAD
:1010300084E08093740210922C0210922B02E091B3
:101040009E02F0919F02099580912B0281110FC0A1
:1010500081E080932B0210920B0209C0803C09F4BE
:10106000A6CF883C09F4A3CF883B09F07DCFE0915F
:101070002C0281E08E0F80932C02F0E0E55FFD4FA3
:1010800080818093BB0090912C0280912B0229C01B
:1010900080914F028093BB0085EC8093BC0064CFAD
:1010A0009091710280917002981758F5E091710249
:1010B00081E08E0F80937102F0E0E05BFD4F808154
:1010C000E9CFE091710281E08E0F809371028091EF
:1010D000BB00F0E0E05BFD4F808390917102809156
:1010E00070029817C8F285E8D8CFE091710281E0CC
:1010F0008E0F809371028091BB00F0E0E05BFD4FAA
:1011000080838091730281115CCF81E080934E02D5
:1011100084EA8093BC001092740226CF85EC809301
:10112000BC001092740280914D02803230F4E09144
:101130004D02F0E0E35DFD4F108260914D0270E0E2
:10114000E0919C02F0919D028DE292E0099510924F
:101150004D020ACF1092720234CFEAEBF2E0138212
:10116000128288EE93E0A0E0B0E084839583A683AA
:10117000B7838CE091E091838083E6ECF2E0138208
:1011800012828EE191E09183808387E2848380E103
:10119000818782E0828713860895789484B582607F
:1011A00084BD84B5816084BD85B5826085BD85B50B
:1011B000816085BD80916E00816080936E00109289
:1011C0008100809181008260809381008091810004
:1011D0008160809381008091800081608093800095
:1011E0008091B10084608093B1008091B0008160F3
:1011F0008093B00080917A00846080937A0080911F
:101200007A00826080937A0080917A008160809376
:101210007A0080917A00806880937A001092C100F1
:1012200004B603FE03C081E08093A40214BE0FB68F
:10123000F894A89580916000886180936000109276
:1012400060000FBE88E198E20FB6F894A8958093ED
:1012500060000FBE909360001092A3021092A20251
:101260001092A1021092A0020E9426028FEC91E03F
:1012700090939F0280939E0280ED91E090939D0257
:1012800080939C021092CB028091D002823018F0A1
:1012900098E09093CB028093CE0262E370E080E00E
:1012A00090E00E9491016091D10286EC92E00E9450
:1012B000EB0268EE73E080E090E00E94910160E351
:1012C00086EC92E00E944C04CBE4D6E4CE01019778
:1012D000F1F760E386EC92E00E944C042197F1F76D
:1012E00060E386EC92E00E944C0483E592E0019773
:1012F000F1F760E286EC92E00E944C046091CB0230
:10130000606240E086EC92E00E94650484E0809395
:10131000CC0240E06CE086EC92E00E9465040E9402
:101320007C0482E08093CD0240E066E086EC92E0AF
:101330000E94650440E062E086EC92E00E94650451
:101340008BE39FE10197F1F788E08093D10260E0A1
:1013500086EC92E00E94EB020E947C048091A40241
:10136000882309F4E1C080E00E94870486EA91E0C6
:101370000E943F0481E00E94870489EB91E00E9473
:101380003F046CED75E080E090E00E94910161E027
:101390008CE00E94E30061E08BE00E94E30061E0EA
:1013A0008AE00E94E30060E08CE00E94B50060E00B
:1013B0008BE00E94B50060E08AE00E94B50061E029
:1013C00089E00E94E30090E080E00E94140162E066
:1013D00082E00E94E30062E083E00E94E30062E0BA
:1013E00084E00E94E30062E085E00E94E30062E0A6
:1013F00086E00E94E30062E087E00E94E30088EE5E
:10140000882E83E0982EA12CB12C02E310E0C0E0DE
:10141000D0E0A89570E060E082E090E00E9439059D
:1014200061E070E083E090E00E94390562E070E0E6
:1014300084E090E00E94390563E070E085E090E090
:101440000E94390564E070E086E090E00E94390572
:1014500065E070E087E090E00E9439058091AF027E
:101460009091B002019709F059C00E94C301C09049
:10147000AB02D090AC02E090AD02F090AE026C19DD
:101480007D098E099F09A50194010E94B00AC090B0
:10149000A702D090A802E090A902F090AA02C20E82
:1014A000D31EE41EF51E80E00E94870489E591E0CA
:1014B0000E943F04C701B6010E94BE0481E00E9461
:1014C000870489EC91E00E943F048091A5029091ED
:1014D000A602B8010E949C0A8FEC91E0611571058B
:1014E000D9F06B01770FEE08FF084AE0C701B6019B
:1014F000F7FE0EC041E06DE286EC92E00E946504CA
:1015000066277727CB016C197D098E099F094AE070
:101510000E94F10389ED91E00E943F04209709F4B5
:1015200078CF0E94000075CF80E00E94870486E794
:1015300091E00E943F042BCF97FB072E16F40094F6
:1015400007D077FD09D00E94D20A07FC05D03EF4EF
:10155000909581959F4F0895709561957F4F08955F
:10156000A1E21A2EAA1BBB1BFD010DC0AA1FBB1FA7
:10157000EE1FFF1FA217B307E407F50720F0A21B19
:10158000B30BE40BF50B661F771F881F991F1A9486
:1015900069F760957095809590959B01AC01BD01B0
:1015A000CF010895AA1BBB1B51E107C0AA1FBB1F97
:1015B000A617B70710F0A61BB70B881F991F5A95DF
:1015C000A9F780959095BC01CD010895EE0FFF1FFE
:1015D0000590F491E02D0994F894FFCF00004000AD
:1015E0001400540000000000BC028F02D203650208
:1015F00088027502660200000000B804D101D2031F
:10160000FE0130003A002020204241534C41544911
:101610004C44492000202043414C495349594F52E2
:10162000212121002020445552445552554C445507
:101630002121202000535552453A2000202020200F
:10164000424954544921212100544F504C414D3AB4
:101650002000202053495354454D2048415A4952B7
:10166000202000202020494C45524920594F4E202F
:101670002020002020204745524920594F4E20204D
:10168000200053697374656D2052657365746C65D1
:101690006E6469210059656E6964656E20426173EC
:1016A0006C6164690048495A3A20004B4150414CF2
:1016B00049202020002E204B6164656D65200000CC
:107E0000112484B714BE81FFF0D085E080938100F7
:107E100082E08093C00088E18093C10086E0809377
:107E2000C20080E18093C4008EE0C9D0259A86E02C
:107E300020E33CEF91E0309385002093840096BBD3
:107E4000B09BFECF1D9AA8958150A9F7CC24DD24C4
:107E500088248394B5E0AB2EA1E19A2EF3E0BF2EE7
:107E6000A2D0813461F49FD0082FAFD0023811F036
:107E7000013811F484E001C083E08DD089C08234E0
:107E800011F484E103C0853419F485E0A6D080C0E4
:107E9000853579F488D0E82EFF2485D0082F10E0AE
:107EA000102F00270E291F29000F111F8ED06801E7
:107EB0006FC0863521F484E090D080E0DECF843638
:107EC00009F040C070D06FD0082F6DD080E0C81688
:107ED00080E7D80618F4F601B7BEE895C0E0D1E017
:107EE00062D089930C17E1F7F0E0CF16F0E7DF06D8
:107EF00018F0F601B7BEE89568D007B600FCFDCFD4
:107F0000A601A0E0B1E02C9130E011968C91119780
:107F100090E0982F8827822B932B1296FA010C0160
:107F200087BEE89511244E5F5F4FF1E0A038BF0790
:107F300051F7F601A7BEE89507B600FCFDCF97BE46
:107F4000E89526C08437B1F42ED02DD0F82E2BD052
:107F50003CD0F601EF2C8F010F5F1F4F84911BD097
:107F6000EA94F801C1F70894C11CD11CFA94CF0C13
:107F7000D11C0EC0853739F428D08EE10CD085E9AC
:107F80000AD08FE07ACF813511F488E018D01DD067
:107F900080E101D065CF982F8091C00085FFFCCF94
:107FA0009093C60008958091C00087FFFCCF809118
:107FB000C00084FD01C0A8958091C6000895E0E648
:107FC000F0E098E1908380830895EDDF803219F02E
:107FD00088E0F5DFFFCF84E1DECF1F93182FE3DFCA
:107FE0001150E9F7F2DF1F91089580E0E8DFEE27F6
:047FF000FF270994CA
:027FFE00040479
:00000001FF
